:0A1069000001020203030404050560
:100E7000EC4EFEED4F2469F58274103EF583E49349
:100E8000FF3395E0FEEF24A1FFEE34E68F82F58379
:100E90002290E6BCE0547EFF7E00E0D394807C008C
:010EA000222F
:1008C000C20DC20AC20CC20B120C8A750B0C750C3D
:1008D0000075130C75141275090C750A1C75110C32
:1008E00075123C75150C75165C85110D85120E85FB
:1008F0000E82850D83A37402F085090F850A108589
:100900001082850F83A37407F0D2E843D82090E6C5
:1009100068E04409F090E65CE0443DF0C2BD538ECF
:10092000DF75C80475CBF075CA5FD2ADD2AF90E663
:1009300080E020E105D20E120EA190E680E054F78F
:10094000F0538EF8C20D300B0512031DC20B300D93
:1009500029120BFD5024C20D120F4D200A1690E6ED
:1009600082E030E704E020E1EF90E682E030E60448
:0F097000E020E0E4120ED0120FFA120A3880C70E
:10031D0090E6B9E0B40C004002819D90032E25E0DB
:10032D007361C08111819D8167819D819D61468130
:10033D009D61BB61B661AC61B1120FFC400281A938
:10034D0090E6BBE024FE602214603324FD6011149E
:10035D00602224067047E50B90E6B3F0E50C80377C
:10036D00E51390E6B3F0E514802DE50D90E6B3F0BE
:10037D00E50E8023E50F90E6B3F0E510801990E6C9
:10038D00BAE0FF120EFCAA06A9077B01EA494B60F1
:10039D000CEE90E6B3F0EF90E6B4F081A981A212D5
:1003AD00102A81A912107B81A912107381A9121034
:1003BD001581A9120FFE400281A990E6B8E0247FB5
:1003CD00601514601924027039A20AE43325E0FF88
:1003DD00A20CE4334F8018E490E740F08016120E23
:1003ED009140047D0180027D00120E70E054019059
:1003FD00E740F0E4A3F090E68AF090E68B7402F00B
:10040D0081A981A2121083400281A990E6B8E0244F
:10041D00FE60132402600281A990E6BAE0B40104E3
:10042D00C20A81A981A290E6BAE0702C120E914009
:10043D00047D0180027D00120E70E054FEF090E606
:10044D00BCE05480131313541FFFE0540F2F90E69C
:10045D0083F0E04420F08044803B121085503D90A5
:10046D00E6B8E024FE60192402703190E6BAE0B4DB
:10047D000104D20A802690E6BAE06402601E80155F
:10048D00120E9140047D0180027D00120E708008D5
:10049D00121087500790E6A0E04401F090E6A0E02E
:0304AD004480F098
:0104B0002229
:03003300020AFBC3
:040AFB0053D8EF32AB
:03002B00021000C0
:10100000C0E00508E50870020561E5676002156744
:05101000C2CFD0E03268
:100C8A0090E600E054E74410F090E6107420F090EB
:100C9A00E611F000000090E61274A2F00000009045
:100CAA00E6137420F000000090E61474E2F00000ED
:100CBA000090E6157460F0C20390E6917480F0002B
:100CCA000000F043AF01D20AE4F530F537F532F50A
:100CDA0028F563C205C206C201C200C204C209C223
:100CEA0007C208756204F538753912F53AF589F5BF
:0F0CFA0080F590F5B075B33F75B27F75B5FF22E9
:100A3800200605120100805AE5AA20E05590E691AB
:100A4800E0C3940F404C90F000E064557044A3E07C
:100A580054C16441703C300139200436751D01755C
:100A68001EF0751F0A7B017AF079051205FDD20484
:100A780090F003E0541F601790F002E0600E90F0D1
:100A880001E030E50AA3E0C3940F5003D38001C30B
:100A98009208E52830E6051206CD800DE52830E7F6
:100AA8000512097F8003120800E5636003120DF642
:0D0AB8003000031204B1200503120D0922C5
:10010000E5AA30E002611CC20590E690E0FE90E6B0
:1001100091E07C002400F519EC3EF51890F000E029
:1001200024A67002412B24B57002418C24FB70027E
:1001300041C1245560026112756555C20075C8043D
:10014000C3E519940FE51894005002610B90F0017B
:10015000E030E747538083E4F5174380105380EF86
:10016000E51760064380045380FB4380085380F703
:100170004380045380FB7F284380085380F7DFF8D7
:10018000E51760064380045380FB0517E517B402AA
:10019000C9D202E4F53EF5375332CF5380FB90F0DD
:1001A00001E030E62E200412751D01751EF0751F4A
:1001B0000A7B017AF079051205FDC20490F001E096
:1001C00020E20C2009094380045380FB120F72C205
:1001D00009800D90F001E030E2064380045380FB7B
:1001E00090F001E030E10FC3E5199419E51894008F
:1001F00040047F0180027F008F6390F003E060295C
:1002000075170174002517F582E434F0F583E0FFDB
:10021000743B2517F8A6070517E517B419E5E4F5AB
:1002200030AF62120D8053325F610B75655AC3E5C2
:10023000199405E5189400405190F001E030E7046E
:10024000A3E0F58090F001E030E60690F003E0F5E1
:100250009090F001E030E40690F005E0F5B090F009
:1002600001E030E51390F004E0D39407500A539076
:10027000E3E025E025E0429090F001E030E30B530D
:1002800080FC90F006E054034280807F7565A5C332
:10029000E5199404E5189400402590F001E030E75A
:1002A00011A3E0F564D3940F40028001D39203536D
:1002B000640F90F001E030E60690F003E0F5628014
:1002C0004A7565AAC3E519941CE5189400403C756D
:1002D000170174002517F582E434F0F583E0FF740C
:1002E0003B2517F8A6070517E517B41CE5D20075DE
:1002F000C804E4F536F535F534F533F51D751E0003
:10030000751F48FB7A0079431205FD90E6917480D1
:0C031000F022E4F56590E6A0E04401F066
:01031C0022BE
:0605FD008B1A8A1B891C09
:100603007F04EFF47002C1CCAB1AAA1BA91C8F8222
:10061300758300120BB9FEAB1DAA1EA91F8F82752D
:100623008300120BB9FDEE30E003438040ED30E070
:1006330003438020438008538097EE30E1034380D7
:1006430040ED30E103438020438008538097EE3030
:10065300E203438040ED30E20343802043800853AC
:100663008097EE30E303438040ED30E30343802083
:10067300438008538097EE30E403438040ED30E439
:1006830003438020438008538097EE30E503438083
:1006930040ED30E503438020438008538097EE30DC
:1006A300E603438040ED30E6034380204380085354
:1006B3008097EE30E703438040ED30E7034380202B
:0906C3004380085380971FC10514
:0106CC00220B
:100D8000C202C28CC28DE53D7003433C20E53C307D
:100D9000E517E4F567E53DC39F50028F3DE53DF45F
:100DA000F58CE4F58AD28C8003853D67E53E541FBF
:100DB000F537E53C30E10CE537D3940F400F75373C
:100DC0000F800AE537D3941E400375371EE5376060
:100DD00021E53C30E302D206E53C30E402D2054393
:100DE00032105332F7853F283003075328F0E5646B
:060DF0004228E4F5612237
:1004B100E47F01FEFDFCAB36AA35A934A833D31283
:1004C1000BE64003D38001C3920EE4FFFEFDFCABBB
:1004D10036AA35A934A833C3120BE67003D38001C1
:1004E100C3920F300F04AF3E8002AF3D8F17E56717
:1004F1006002A1FCE4F5C81210534380045380FB51
:10050100C28CC28D300F047F2080027F40E53C5FAA
:10051100600EE517F4F58CE4F58AD28CF567800658
:1005210075C804851767E53C30E70B300F0553802C
:10053100FD8003438002E53624FFF536E53534FFBF
:10054100F535E53434FFF534E53334FFF533300E5A
:1005510052E5602551F560E55F3550F55FE55E35A3
:100561004FF55EE55D354EF55DE55B2556F55BE5E1
:100571005A3555F55AE5593554F559E5583553F578
:1005810058E55C54F8254D54F8FFE54354072FF521
:100591005CE55754F8255254F8FFE54854072FF508
:1005A100578037E4F51774432517F8E6FF745C2587
:1005B10017F8A60774482517F8E6FF74572517F8AA
:1005C100A6070517E517B405DDA20F720E400BE56E
:1005D1003C30E406435704435C04300F0C8542363B
:1005E100854135854034853F33751D00751E007585
:0B05F1001F577B007A00795C1205FDAB
:0105FC0022DC
:100DF600E56324FE601F14602D2402702F30012C41
:100E0600756302751D00751E00751F4F7B007A0005
:100E1600794A0205FD200114E4FF120D80D2015328
:0D0E260032DF75630322200103E4F563222F
:10080000E53230E44D20070AE59020E52BE59030F5
:10081000E026439002E567600201BF1210532007F3
:10082000094390205390FE5390DF12105EE5803014
:10083000E70201BF43320822E59030E5065390FEFF
:100840005390DFE58030E707E561D3940340700201
:1008500007DEE5376069E58020E75AE53764017017
:100860001FE5636402600AE5637015300412200915
:100870000F4380045380FBE5637005D209120F72A9
:10088000E53075F004A42400F974E035F0752A0110
:10089000F52B892C752D00752E00752F00120F2F4A
:1008A00030091C3008192007164390205390FE533E
:1008B00090DFD20722E561D39403400312103F2258
:0B105300308C03308DFDC28CC28D225A
:0B105E00C2075332EFE4F561D201221B
:1007DE004390015390FE4390015390FE439001537A
:1007EE0090FE4390015390FE4390015390FE439030
:0207FE000122D6
:10097F00E53230E44D20070AE59020E12BE5903079
:10098F00E026439020E5676002413712105320079D
:10099F00094390025390FE5390FD12105EE5903084
:1009AF00E702413743320822E59030E1065390FECB
:1009BF005390FDE59030E707E561D394034069025A
:1009CF0007DEE5376062E59020E753E53764017095
:1009DF001FE5636402600AE5637015300412200995
:1009EF000F4380045380FBE5637005D209120F7229
:1009FF00752A00752B00752C00E53075F004A424C2
:100A0F0000F974E035F0120F2830091C3008192056
:100A1F0007164390025390FE5390FDD20722E561D3
:090A2F00D39403400312103F228E
:1006CD00E53230E45120070BE5905422702DE59072
:1006DD0030E028E5676002E19712105320070943C7
:1006ED0090225390FE5390DD12105EE58030E707A7
:1006FD00E59030E702E19743320822E590542260FD
:10070D00065390FE5390DDE59030E707E561D394F5
:10071D000340770207DEE5376070E59020E761E57D
:10072D008020E75CE5376401701FE5636402600AB1
:10073D00E563701530041220090F4380045380FBCC
:10074D00E5637005D209120F72E53075F004A4FF50
:10075D00AEF02400F974E03E752A01F52B892C7456
:10076D00042FF974E03E120F28053030091C3008B3
:10077D00192007164390225390FE5390DDD2072285
:0B078D00E561D39403400312103F22EB
:070F2800752D01F52E892F44
:100F2F00AA39A93A120BF7E4F56105301537E53701
:0E0F3F0060045390FE22C201C20543322022FC
:100F720090F003E030E718E58054FCFFE030E60330
:0F0F820043070290F003E030E5034307018F803F
:010F9100223D
:100D0900E5AA20E57174F8F59D7400F59E74E0F587
:100D19009A7400F59B90E67CE565F0E59030E60570
:100D29005332BF800343324090E67CE532F0E580E0
:100D3900F0E590F0E530F0E53230E52BE53025E0DF
:100D490025E0FFEFD39400400B90E67BE090E67C32
:100D5900F01F80EFE53025E025E02405FDE4F530BE
:100D6900C2065332D780027D05E490E698F0000070
:060D79000090E699EDF088
:010D7F002251
:020BFD00D32201
:020FFA00D32200
:10103F00C201E4F530F537C205C206F52843328008
:04104F005332CF2227
:020FFC00D322FE
:0810730090E6BAE0F566D32215
:1010150090E740E566F0E490E68AF000000090E68F
:051025008B04F0D32252
:08107B0090E6BAE0F531D32242
:10102A0090E740E531F0E490E68AF000000090E6AF
:05103A008B04F0D3223D
:020FFE00D322FC
:02108300D32276
:02108500D32274
:02108700D32272
:100F9200C0E0C083C082D20B5391EF90E65D740132
:080FA200F0D082D083D0E032D0
:100FC200C0E0C083C0825391EF90E65D7404F0D01C
:060FD20082D083D0E03262
:100FD800C0E0C083C0825391EF90E65D7402F0D008
:060FE80082D083D0E0324C
:100AC500C0E0C083C08285110D85120E850E82851A
:100AD5000D83A37402F085090F850A1085108285A0
:100AE5000F83A37407F05391EF90E65D7410F0D077
:060AF50082D083D0E03244
:100FAA00C0E0C083C082D20D5391EF90E65D740811
:080FBA00F0D082D083D0E032B8
:100E3300C0E0C083C08290E680E030E72085090DE2
:100E4300850A0E850E82850D83A37402F085110F2A
:100E5300851210851082850F83A37407F05391EFD9
:0D0E630090E65D7420F0D082D083D0E032A4
:100ED00090E682E030E004E020E60B90E682E0302D
:100EE000E119E030E71590E680E04401F07F147EE0
:0C0EF0000012079890E680E054FEF0220B
:100F4D0090E682E044C0F090E681F0438701000016
:040F5D00000000226E
:100EA100300E0990E680E0440AF0800790E680E089
:100EB1004408F07FDC7E0512079890E65D74FFF030
:0F0EC10090E65FF05391EF90E680E054F7F02257
:020EFC00A90744
:100EFE00AE15AF168F828E83A3E064037017AD011B
:100F0E0019ED7001228F828E83E07C002FFDEC3E66
:090F1E00FEAF0580DF7E007F00BC
:010F270022A7
:100798008E178F1890E600E054187012E51824019F
:1007A800FFE43517C313F517EF13F518801590E616
:1007B80000E05418FFBF100BE51825E0F518E51701
:1007C80033F517E5181518AE17700215174E6005A2
:0607D800120F6180EE2209
:100F61007400F58690FDA57C05A3E582458370F9A3
:010F7100225D
:03004300020B00AD
:03005300020B009D
:100B0000020F9200020FD800020FC200020FAA00CB
:100B1000020AC500020E3300020BB800020BB80037
:100B2000020BB800020BB800020BB800020BB800B1
:100B3000020BB800020BB800020BB800020BB800A1
:100B4000020BB800020BB800020BB800020BB80091
:100B5000020BB800020BB800020BB800020BB80081
:100B6000020BB800020BB800020BB800020BB80071
:100B7000020BB800020BB800020BB800020BB80061
:100B8000020BB800020BB800020BB800020BB80051
:100B9000020BB800020BB800020BB800020BB80041
:100BA000020BB800020BB800020BB800020BB80031
:090BB000020BB800020BB8003280
:100C0000120100020000004047050B102200010203
:100C100000010A0600020000004001000902200055
:100C2000010100A0320904000002FF0000000705D6
:100C300002020002000705860200020009022000ED
:100C4000010100A0320904000002FF0000000705B6
:100C50000202400000070586024000000403090468
:100C60001003430079007000720065007300730088
:100C700018034E00320050004B00200056004E007A
:0A0C8000410020005600350000007E
:03000000020FEEFE
:0C0FEE00787FE4F6D8FD7581670208C02A
:100BB900BB010CE58229F582E5833AF583E02250F1
:100BC90006E92582F8E622BBFE06E92582F8E2223B
:0D0BD900E58229F582E5833AF583E4932255
:100BE600EB9FF5F0EA9E42F0E99D42F0E89C45F065
:010BF60022DC
:060BF7008A838982E47389
:10120000E4F529E4FFFEE5296002613A5380DFE559
:101210002830E403438020000000439001000000D8
:10122000000000E58030E703430780E59030E703E6
:101230004306805390FE5380DFE52830E30343806C
:1012400020000000439001000000000000E5803015
:10125000E703430740E59030E7034306405390FE21
:101260005380DFE52830E2034380200000004390F4
:1012700001000000000000E58030E703430720E59F
:101280009030E7034306205390FE5380DFE528307B
:10129000E1034380200000004390010000000000B3
:1012A00000E58030E703430710E59030E70343068D
:1012B000105390FE5380DFE52830E0034380200088
:1012C0000000439001000000000000E58030E703CB
:1012D000430708E59030E7034306085390FE538028
:1012E000DF000000439001000000000000E58030B6
:1012F000E703430704E59030E7034306045390FEF9
:10130000000000439001000000000000E58030E78D
:1013100003430702E59030E7034306025390FE00C3
:101320000000439001000000E58030E7034307011F
:10133000E59030E703430601812C439001E58030BE
:10134000E703430780E59030E7034306805390FEB0
:10135000000000439001000000000000E58030E73D
:1013600003430740E59030E7034306405390FE00F7
:101370000000439001000000000000E58030E7031A
:10138000430720E59030E7034306205390FE00001A
:1013900000439001000000000000E58030E70343B7
:1013A0000710E59030E7034306105390FE0000005D
:1013B000439001000000000000E58030E703430790
:1013C00008E59030E7034306085390FE0000004311
:1013D0009001000000000000E58030E703430704AF
:1013E000E59030E7034306045390FE00000043906D
:1013F00001000000000000E58030E703430702E53C
:101400009030E7034306025390FE00000043900132
:10141000000000000000E58030E703430701E5908D
:1014200030E703430601E529640360035390FEE5BA
:101430002C452B6011AB2A052CE52CAA2B7002053C
:101440002B14F9EF9168E52F452E6011AB2D052F78
:10145000E52FAA2E7002052E14F9EE91680529E5F4
:07146000296404600241034E
:011467002262
:10146800BB010689828A83F0225002F722BBFE0163
:02147800F3225D
:00000001FF
